:020000040800F2
:10000000580B0020CD010008DD230008A11E0008C8
:10001000D9230008410D00080D3100080000000040
:100020000000000000000000000000000131000896
:10003000450D000800000000FD30000805310008F3
:10004000E7010008E7010008E7010008E7010008F0
:10005000E7010008E7010008E7010008E7010008E0
:10006000E7010008E7010008E7010008E7010008D0
:10007000E7010008E7010008E7010008E7010008C0
:10008000E7010008E7010008E7010008E7010008B0
:10009000E7010008E7010008E7010008E7010008A0
:1000A000E7010008E7010008E7010008E701000890
:1000B000E7010008E7010008E7010008E701000880
:1000C000E7010008E7010008E7010008E701000870
:1000D000E7010008E7010008E7010008E701000860
:1000E000E7010008E7010008E701000800F002F856
:1000F00000F05DF814A696E8000CB244B344DA456B
:1001000001D100F054F8BAE80F000FA696E83000CD
:10011000A5EB040504EB0607AAEB0704A7F101070A
:100120004FEA15154FEA3414A4F10104AC4201D38F
:1001300000F03DF813F0010F18BFFB1A43F0010364
:1001400000F001F8DBE718472444000044440000B5
:10015000103A24BF78C878C1FAD8520724BF30C8F3
:1001600030C144BF04680C60704700007047000055
:100170000023002400250026103A28BF78C1FBD8B0
:10018000520728BF30C148BF0B607047662903F093
:100190002C86002070471FB500F0CCFB0400002027
:1001A000002103F023FCE0601FBD10B510BD00F07E
:1001B000C1FC1146FFF7EFFF02F0AAFF00F0DFFCE1
:1001C00003B4FFF7F2FF03BC00F022FD09488047AB
:1001D00009480047FEE7FEE7FEE7FEE7FEE7FEE729
:1001E000FEE7FEE7FEE7FEE704480549054A064B41
:1001F0007047000009310008ED0000085805002094
:10020000580B002058070020580700200FB41CB5D9
:10021000074B06AA7B4469460090059800F03FFB17
:100220000020694600F04EFB1CBC5DF814FB00008A
:10023000AD0600002DE9F0474FF0000A894604465C
:10024000C0F820A02046E1688847002876D02528FD
:1002500006D0D4E901219047206A401C2062F1E7D2
:10026000E168204600258847C4F81CA00646002700
:10027000C4F818A02A2E09D0304603F0AFFB38B3DB
:1002800004EB8708303EC8F8186019E059F8041BE1
:10029000204604EB87029161E1688847012F0646FA
:1002A00018D1E069002820DA25F020051DE0D8F8F3
:1002B000180000EB800006EB40003038C8F818004A
:1002C0002046E1688847064603F088FB0028EED107
:1002D000012F0AD02E2E08D12046E16888477F1CC6
:1002E0000646022F45F02005C4DBA069002803DA8A
:1002F000404245F00105A061E80701D025F0100556
:10030000B6B1A6F14100192802D8203645F400659F
:100310004A463146204625604D46FFF737FF58B123
:10032000012806D0ED1D25F0070000F1080989E736
:1003300004E005F1040985E730468AE7206ABDE854
:10034000F08740EA010310B59B070FD1042A0DD3B3
:1003500010C808C9121F9C42F8D020BA19BA8842A6
:1003600001D9012010BD4FF0FF3010BD1AB1D307E5
:1003700003D0521C07E0002010BD10F8013B11F81B
:10038000014B1B1B07D110F8013B11F8014B1B1B44
:1003900001D1921EF1D1184610BD032A40F23080DF
:1003A00010F0030C00F0158011F8013BBCF1020FB6
:1003B000624498BF11F801CB00F8013B38BF11F837
:1003C000013BA2F1040298BF00F801CB38BF00F84E
:1003D000013B11F0030300F07A82083AC0F0088074
:1003E00051F8043B083A51F804CBA0E80810F5E7AF
:1003F000121D5CBF51F8043B40F8043BAFF3008092
:10040000D20724BF11F8013B11F801CB48BF11F806
:10041000012B24BF00F8013B00F801CB48BF00F8D6
:10042000012B70474FF0000200B5134694469646E4
:10043000203922BFA0E80C50A0E80C50B1F12001F7
:10044000BFF4F7AF090728BFA0E80C5048BF0CC0A5
:100450005DF804EB890028BF40F8042B08BF704703
:1004600048BF20F8022B11F0804F18BF00F8012B75
:1004700070477047704770472DE9FF4F0C461E4686
:100480004FF0FF378BB0D2E90001DDF860800A90B1
:100490008A46C1F30A5505B93D46002108464FF08A
:1004A0000000BAF1000F00F4400005DA00EB800014
:1004B0004FF4400101EA50004FEA9059B9F1010FA1
:1004C00000DDB9460A9850EA4A000ED044F61050B2
:1004D000A5F2FF3545432F14B8F1000F1ED0754229
:1004E000291E1EDDC9F100021CE0B8F1010F4FF01A
:1004F000000001D0302103E0F24305E02154401C0C
:10050000B042FBDB30460022002121540B99C1F898
:100510000880C1E900200FB0BDE8F08FBD1B6D1C45
:10052000DEE74A4600DA694206A800F08DFA06AB1B
:1005300093E8070003AB83E8070050460A9902F0EE
:1005400071FE8DE80700A0F500501F380090039859
:10055000002D0ADD42F21F014A460844002303A988
:100560000390684603F0DAF809E0A0F500504A4627
:100570001F38002303A90390684603F0E4F88DE8D0
:1005800007000004000C03D04FF0FF30410800E0EA
:100590001046B8F1000F03D00022009215461EE06D
:1005A000751E05D400F0CAF9303262556D1EF9D5BA
:1005B000B3460122084302D000227F1C04E02078C9
:1005C000302801D100227F1E002A099784D01DE027
:1005D000112D07DA00F0B2F9303262556D1C50EA85
:1005E0000102F5D1084302D00098C8B10EE0002105
:1005F000681E05E0235C625C63542254401E491C63
:100600008142F7DBAB46A81B401E0990002004F88E
:100610000B000B98099AC0F80880C0E9002B7AE714
:1006200011264FF0000857E72DE9F04F88460446A1
:10063000D21D22F0070191B0D1E90001CDE90A01F4
:1006400003F0B8F902460B98C00F01D02D2007E047
:100650002068810701D52B2002E0202101EAC0009B
:10066000032A099001D0072A05DB034641462046AC
:1006700000F0AAF90BE12078800601D5E06900E0DE
:100680000620B8F1650F814606D0B8F1660F18D084
:10069000B8F1670F70D131E00020B9F1110F00906F
:1006A00001DB112301E009F101030AAA01A90CA849
:1006B000FFF7E2FEDDE90C70002609F10105834633
:1006C00047E001204B4600904FF000470AAA01A9DD
:1006D0000CA8FFF7D1FEDDE90DB00C995D460026B0
:1006E00010B909F101000D18B9EB050003D4C0F1F0
:1006F000FF3609F10105A5EB09002BE0B9F1010F67
:1007000001DA4FF001090020B9F1110F00904846BD
:1007100001DD112300E003460AAA01A90CA8FFF796
:10072000ABFEDDE90C704D460026834620780007BD
:100730000AD4AB4500DA5D4601A8012D04DD41195C
:1007400011F8011C302907D04F4502DA17F1040FC8
:1007500004DA012082460FE06D1EEEE7002F02DC76
:10076000ED1B3E4403E0781CA84200DD7D1CB81B55
:1007700000F1010A4FF000472078000703D4AA4592
:1007800001DB4FF0FF3A0021B7F1004F0DF14308B4
:100790008DF8431024D002202B23002F01DA7F4252
:1007A0002D230A21021EA0F1010000DC5FB197FB9E
:1007B000F1FC97FBF1F201FB1C7C17460CF1300CAD
:1007C00008F801CDEEE7A8F10100037021880905C2
:1007D00001D5452100E06521A0F1010800F8011CC8
:1007E00009980FA9A1EB0807FF1D00B101204119CD
:1007F00001EBEA70A1693844081A401EA061207814
:10080000C00602D42046AFF30080099828B1D4E98D
:1008100001219047206A401C20622078C00622D522
:100820002046AFF300801EE0002E04DBB34502DD5E
:1008300001A8805D00E03020D4E901219047206AC2
:10084000401C2062761CAAF101005FEA000A0AD16E
:1008500000F070F8C0680168405CD4E9012190475D
:10086000206A401C2062281EA5F10105DCDC07E09F
:10087000D4E9012118F8010B9047206A401C20623E
:10088000381EA7F10107F3DC2046AFF300800320F8
:1008900011B041E601694A1C02610878704700B551
:1008A0008FB0CDE901310021059105497944CDE9A9
:1008B000031011466846FFF7BDFC0FB000BD0000F5
:1008C000E5FFFFFF0A6802F8010B0A60704710B5E8
:1008D000203AC0F00B80B1E81850A0E81850B1E8F9
:1008E0001850A0E81850203ABFF4F5AF5FEA027C38
:1008F00024BFB1E81850A0E8185044BF18C918C068
:10090000BDE810405FEA827C24BF51F8043B40F808
:10091000043B08BF7047D20728BF31F8023B48BFED
:1009200011F8012B28BF20F8023B48BF00F8012B2B
:1009300070470000004870473000002030B5B0F12B
:100940000A0271F100034FEA900E4EEA817EB0EB8D
:100950000E0061EB91014FEA101E4EEA017E10EB92
:100960000E0041EB11114FEA102E4EEA016E10EB12
:100970000E0041EB11214FEA104E4EEA014E10EBF2
:100980000E0041EB1141401841F100014FEAD00047
:1009900040EA41704FEAD1014FEA810444EA907481
:1009A00010EB800544EB01046D1944EB0404521B69
:1009B000A3414FF0000348BF0A3200D530BD401CB0
:1009C00041F1000130BD00002DE9F0411F46044611
:1009D00003260168072A01F4006004DB08B116A5AC
:1009E00005E016A503E008B115A500E015A521F066
:1009F00010002060A069C01EA0610FB1401EA06160
:100A00002046AFF300804FB1D4E90121384690472A
:100A1000206A401C2062C01C206206E0206AFAE7BF
:100A2000D4E9012115F8010B9047761EF8D2204633
:100A3000AFF30080BDE8F0814E414E006E616E0064
:100A4000494E4600696E66002DE9F047814616461C
:100A50008AB0354878440DC88DE80D003248784496
:100A6000801C03AC0DC884E80D0041F69B3008449F
:100A7000372190FBF1F290FBF1F5A5F1800501FB28
:100A800012041B3C02D56442012000E00020DFF884
:100A900098A080460027FA44AAF1BE0A0EE0E007BB
:100AA0000AD03246684607EB470101230AEB810171
:100AB00002F049FE8DE8070064107F1C002CEED187
:100AC000194F7F44AE3F19E0E80715D007EB04103B
:100AD0000DF1180A90E80E008AE80E00C068F04296
:100AE00001D1981908903246012306A903A802F003
:100AF0002AFE03AB83E807006D10641C002DE3D1D0
:100B00004FF0010332466946B8F1000F03A802D046
:100B100002F004FE01E002F016FEC9E90001C9F886
:100B200008200AB0BDE8F087143400000048704780
:100B3000100000207546FFF7F9FFAE460500694634
:100B4000534620F00700854618B020B5FFF74CFB50
:100B5000BDE820404FF000064FF000074FF00008BE
:100B60004FF0000BAC46ACE8C009ACE8C009ACE8FB
:100B7000C009ACE8C00921F007018D46704710B5E7
:100B80000446AFF300802046BDE81040FFF718BBD5
:100B90004FF0013C50F8042B51F8043B9A4221D10C
:100BA000A2EB0C03934313EACC1317D150F8042B98
:100BB00051F8043B9A4215D1A2EB0C03934313EA7C
:100BC000CC130BD150F8042B51F8043B9A4209D1B5
:100BD000A2EB0C03934313EACC13DBD04FF00000DD
:100BE000704700BFD01A01BAB1FA81F101F01801C3
:100BF00022FA01F0CB40DBB2C0B2C01AC1F1200131
:100C00002CFA01F3D11A914311EAC311E6D17047CE
:100C100001491820ABBEFEE7260002007047000025
:100C200040F27000C2F200000068704710B584B056
:100C3000282000F08FF840F2FC404FF0FF34C2F261
:100C400000000DF10F0270210123009400F056FA0C
:100C50009DF80F0000070CD440F6BE00029040F251
:100C6000FC40C2F2000002AA70210323009400F0AD
:100C700047FC04B010BD000070B584B040F2FC44E5
:100C800043F2AC30C2F2000403904FF0FF3503AAE8
:100C9000204670210323009500F032FC4B2000F029
:100CA00059F80DF10602204670210623009500F048
:100CB00025FA9DF9060000283AD49DF808109DF801
:100CC00009509DF80700090141EA15119DF80A60D5
:100CD00041EA003002F034FF04464FF4702000EA8D
:100CE00005409DF80B1040EA0620084402F028FF5A
:100CF00000210546C4F2C821204602F035FF4FF01E
:100D0000565102F031FF40F27004C2F2000400219B
:100D10002060C4F24831284602F026FF4FF05651B9
:100D200002F022FF0021CCF2482102F0A7FE606011
:100D300004B070BD40F27000C2F20000406870471D
:100D4000FEE7000070470000EFF3108072B600BFAE
:100D5000FEE70000B0B5044600F018F9054640F281
:100D60000000C2F200000078611C18BF044400BFFC
:100D700000F00CF9401BA042FAD3B0BD2DE9F04FB2
:100D800082B00E68002E00F0FD8041F20042C4F2F5
:100D90000102042340F2004E904208BF03234FF6A5
:100DA000FF7CC4F2010E009300240123C1F2100C59
:100DB0004FF0000A4FF000094BE000BF41F2000283
:100DC000C4F20102009F904208BF022704F00C0306
:100DD0000F229A402BEA020207FA03F34FEA9A0520
:100DE0001A4346F825204E6840F20C45F202DEF820
:100DF000082054BF22EA080242EA0802C4F20105B0
:100E0000CEF808202A68B30254BF22EA080242EA58
:100E100008022A60B303DEF8042054BF22EA080265
:100E200042EA0802F303CEF80420DEF800204FF077
:100E3000010354BF22EA080242EA0802CEF8002069
:100E40000E680AF1010A36FA0AF204F1040400F00D
:100E5000998003FA0AFB16EA0B08F1D04E68664542
:100E600012DC122E56D8DFE806F0350B4D495555E9
:100E7000555555555555555555555545510000BF76
:100E8000D1F80C9046E000BF4FF6FF72C1F221028C
:100E900096420FDC0022C1F2110296421AD00022C3
:100EA000C1F21202964215D00022C1F221029642EE
:100EB00010D02FE00022C1F2220296420AD0002276
:100EC000C1F23102964205D00022C1F232029642AE
:100ED00020D100BF8A684AB1012A14BFC0F814B0FB
:100EE000C0F810B04FF0080914E000BF4FF004093B
:100EF00010E000BFCA6802F104090BE04FF00009DE
:100F000008E000BFCA6802F1080903E0CA6802F1FC
:100F10000C0900BF02462646B8F5807F24BF043284
:100F2000203E17680F25B54027EA050509FA06F6A1
:100F300035431560CA79D2067FF582AF41F21803B6
:100F4000C4F202031A68AEF57E7642F001021A601E
:100F50001A6802F001020192019A2AF0030256F87F
:100F600002B040F60002C4F20102904208D040F6FE
:100F70000042C4F2010290427FF420AF012725E72E
:100F8000002723E702B0BDE8F08F000040F2505088
:100F9000C2F2000000687047002804BF01207047BB
:100FA000F0B581B0044690F83D0028B9002084F8DF
:100FB0003C00204600F092FB242084F83D0020688D
:100FC000016821F001010160016841F40041016004
:100FD000016821F40041016000F038FD636848F2C7
:100FE000A16CC0F2010C40F60011C0F23D01634556
:100FF0003CBF48F28041C0F21E01884202D201206B
:1010000001B0F0BD4DF68361C4F21B31A0FB0112AB
:101010002168970CD1F804E04FF496762EF03F0546
:1010200045EA92454D60774348F638160D6AC0F29E
:101030004106A7FB067625F03F07634538BF960CAF
:10104000721C3A430A62CA6948F2A0664CF6FF77FE
:10105000C0F20106B34222EA07020BD801385B0056
:10106000B0FBF3F001306FF31F30042898BF042069
:101070001BE000BFA768013857B119277B43B0FBBD
:10108000F3F001306FF31F3070B100F5804007E0DE
:1010900003EB4303B0FBF3F001306FF31F3018B1E3
:1010A00000F5004001E000BF01201043C86108685E
:1010B000D4E9072320F0C000104318430860886873
:1010C00048F2FF3204F10C0790438CCF18431043D1
:1010D000A6698860C86820F0FF0038433043C860C4
:1010E000086840F00100086000202021206484F896
:1010F0003D10206384F83E0001B0F0BD2DE9F047BB
:1011000084B0044600201F46164689460290FFF729
:101110003DFF94F83D10202924D10546206800BFEA
:10112000816989071AD5FFF731FF411B20681A2909
:10113000F6D381698907F3D500202021206384F844
:101140003D1084F83E00216C41F02001216484F8B8
:101150003C00022004B0BDE8F08700BF94F83C10CA
:10116000012903D1022004B0BDE8F087012184F8F1
:101170003C100168C90703D1016841F00101016019
:101180000168DDF8308021F400610160222184F8DB
:101190003D10102184F83E100021216466626785AD
:1011A000618D0227C0F201072185A7F10211E162DA
:1011B000E16A026811F5803F42F48062026018BF64
:1011C00001293DD1016841F48071016020464FF052
:1011D000011100224346009500F0C2FE50B1206884
:1011E0000068C00544BF4FF400702064012004B0C3
:1011F000BDE8F0872069B0F5804F27D149F00100A4
:10120000C0B2216842460861204639462B4600F0AC
:101210008DFF0028EAD1208D022861D0012849D015
:10122000002840F0738000200390206841690391FA
:10123000816903910399016841F40071016071E0D3
:101240000829BFD0216B1129BCD0BFE7062000EAD6
:10125000D916206806F1F0010161B91D2046424609
:101260002B4600F063FF0028C0D120685FFA89F1A7
:1012700001612046394642462B4600F057FF0028C0
:10128000B4D10020039020680022416943460391B5
:10129000816903910399016841F4807101602046DE
:1012A0004FF00111009500F05BFE002897D146F049
:1012B000F100A6E72068016821F480610160EFF386
:1012C000108072B600200390206841690391816903
:1012D00003910399016841F40071016062B621E055
:1012E0002068016841F400610160EFF3108072B67C
:1012F000002003902068416903918169039103995B
:10130000016821F48061016062B60BE02068016829
:1013100041F480610160002103914169039180697A
:1013200003900398208D002800F0CC8040F208093B
:101330004BF2895A0237C2F20009C1F2F84A232659
:101340000EE000BF10690870606A218D0130606294
:10135000481E2085618D01396185010400F0B2804D
:1013600080B203280CD802282CD001284AD120466C
:1013700041462A4600F046FF002800F09F8035E7EE
:10138000204641462A4600F03DFF00287FF42EAF5C
:101390002068616A00690870606A2268411C208DBB
:1013A000616201382085638D013B638553695B076A
:1013B000D3D580B20328C5D1106820F480601060B6
:1013C000C0E700BF2046394600224346009500F0A2
:1013D000C7FD00287FF40AAFEFF3108072B62068D3
:1013E000616A026842F40072026000690870606A13
:1013F000218D01306062481E2085608D0138608536
:1014000062B65BE02046394600224346009500F074
:10141000A7FD00287FF4EAAE2068016821F480610E
:101420000160EFF3108072B62068616A006908708D
:10143000606A218D0130013960622185618D013939
:101440006185D9F80010C908A1FB0A12110A71437D
:101450000291029901390291029900293ED0216836
:101460004A6952071AD40299013902910299A9B323
:1014700021684A69520711D40299013902910299EF
:1014800061B321684A69520708D40299013902916F
:10149000029919B321684A695207DAD50A6842F4F9
:1014A00000720A6009690170606A218D0130606212
:1014B000481E2085608D0138608562B62068616AAB
:1014C000006940E7202084F83D00002084F83E00B9
:1014D00084F83C0004B0BDE8F08700BF0020202164
:1014E000206384F83D1084F83E00216C41F0200117
:1014F000216462B684F83C00012004B0BDE8F087A6
:101500002DE9F04383B01E46174689460446FFF78F
:101510003DFD94F83D10202924D10546206800BFE8
:10152000816989071AD5FFF731FD411B20681A2907
:10153000F6D381698907F3D500202021206384F840
:101540003D1084F83E00216C41F02001216484F8B4
:101550003C00022003B0BDE8F08300BF94F83C10CB
:10156000012903D1022003B0BDE8F083012184F8F2
:101570003C100168C90703D1016841F00101016015
:10158000016840F2020821F400610160212184F821
:101590003D10102184F83E100021216467626685A9
:1015A000618DC0F201082185A8F10211E162E16AB2
:1015B0000A9E11F5803F18BF01291DD1016841F431
:1015C0008071016020464FF00111002233460095E2
:1015D00000F0C6FC50B120680068C00544BF4FF45D
:1015E00000702064012003B0BDE8F0832069B0F5ED
:1015F000804F07D1FE2015E00829DFD0216B12298A
:10160000DCD0DFE7062000EAD9102168F03008615D
:1016100008F10601204632462B4600F087FD0028DF
:10162000E0D1FF20216800EA090008612046414618
:1016300032462B4600F07AFD0028D3D100200290DC
:1016400020684169029180690290029806E000BF1B
:10165000204631462A4600F025FC18BB208D68B391
:10166000204631462A4600F015FED8B9606A216846
:10167000024612F8013B0B616262628D013A62859B
:10168000228D531E23854F697F07E1D51B04DFD0D0
:10169000437802300B616062608D01386085901E76
:1016A0002085D5E7206C04289CD12068016841F48E
:1016B00000710160012003B0BDE8F083206801687B
:1016C00041F400710160202084F83D00002084F87E
:1016D0003E0084F83C0003B0BDE8F08310B586B04E
:1016E000016845F20040C4F2000081424FF0000161
:1016F000CDE90411CDE9021102D006B010BD00BF42
:1017000041F21804C4F20204216800F5384041F0A7
:1017100008012160216801F0080101910199C021AF
:101720000291122103910321059102A9FFF726FBE3
:10173000606840F400106060606800F40010019080
:10174000019806B010BD000040F2000040F2505178
:10175000C2F20000C2F2000100780A68104408607A
:101760007047000080B542F20000C4F20200016838
:1017700041F010010160032000F07AF80F2000F022
:1017800005F800F027F8002080BD000070B540F299
:101790000006C2F2000640F208013278C2F20001EF
:1017A0004FF47A730968B3FBF2F20446B1FBF2F12D
:1017B000084600F05FFB0F2C4FF0010508D838B940
:1017C0004FF0FF3021460022002500F025F874601C
:1017D000284670BD82B041F21800C4F202000168D0
:1017E000022241F001010160016801F00101019153
:1017F0000199416841F080514160406800F080509B
:10180000009000980420C4F20100016862F31A619C
:10181000016002B07047000010B54EF60C5CCEF2CD
:10182000000CDCF80030C3F3022E8EF00704042C09
:1018300028BF0424BEF103034FF0FF3E0EFA04F468
:1018400038BF0023A14399400EFA03F39A43114392
:1018500000F00F0200F160430901043A03F564430C
:101860006244002848BF02F10C03197010BD00004B
:101870004EF60C51CEF200010A684FF6FF031A40F3
:1018800060F30A2242F0806040F0FD70086070470B
:10189000002804BF012070472DE9F04381B042F2D7
:1018A0000008C4F202080446D8F800000D4600F013
:1018B000070088420CD2D8F8000020F00700284327
:1018C000C8F80000D8F8000000F00700A8426CD16A
:1018D000206841F204098107C4F2020917D54107C3
:1018E00005D5D9F8001041F4E061C9F800100107EE
:1018F00005D5D9F8001041F46051C9F80010D9F8A5
:101900000010A26821F0F0011143C9F80010C007CF
:1019100042D1D8F8000000F00700A8420CD9D8F84E
:10192000000020F007002843C8F80000D8F80000A5
:1019300000F00700A84238D12068410707D5D9F840
:101940000010E26821F4E0611143C9F800100007BB
:1019500008D5D9F80000216920F4605040EAC100A0
:10196000C9F80000D9F8002002F00C00082841F264
:101970000020C0F27A004DD144F29843C2F3834173
:10198000C0F60003595CD20338D440F60010C0F210
:101990003D0048433EE000BF606859F8041C02283F
:1019A00008D0012826D1890306D4012001B0BDE862
:1019B000F08300BF8901F8D5D9F8001021F00301A8
:1019C0000843C9F80000FFF7E1FA064641F28837FC
:1019D000D9F80000616800F00C00B0EB810F98D0DE
:1019E000FFF7D4FA801BB842F2D9032001B0BDE85A
:1019F000F08300BF8907D8D5DEE700BFD9F8002003
:101A000043F69C63C2F34042C0F600039A5C48432D
:101A1000B0FBF2F0D9F8001043F68462C1F3031171
:101A2000C0F60002515C40F2080220FA01F140F2D7
:101A30000400C2F200000068C2F200021160FFF769
:101A4000A5FE002001B0BDE8F083000040F20800D0
:101A500041F20401C2F20000C4F202010068096808
:101A600043F69462C1F30221C0F60002515CC84003
:101A700070470000002804BF012070472DE9F041A5
:101A800082B00446007841F20006C007C4F20206A4
:101A90000CD0706800F00C00042840F081803068A1
:101AA000800303D56068002800F046812078800715
:101AB0001BD5706810F00C0F09D0706800F00C0096
:101AC000082840F087807068C00300F18380306888
:101AD000800703D52069012840F02E8130686169B4
:101AE00020F0F80040EAC10030602078000713D4ED
:101AF000207840072CD4E569002D00F0188170682B
:101B000000F00C00082840F0A780012D40F004816F
:101B1000012002B0BDE8F081A069002800F08480B7
:101B20000020C4F242200121C0F88014FFF72EFAF1
:101B3000054600BF706A800700F1B280FFF726FA01
:101B4000401B0228F6D9032002B0BDE8F08100BF97
:101B5000F0695FEAC00808D4F06940F08050F06195
:101B6000F06900F080500090009847F20007C4F23E
:101B700000073868C00549D4386840F48070386080
:101B8000FFF704FA054600BF3868C0053ED4FFF7EA
:101B9000FDF9401B6428F7D9032002B0BDE8F081AD
:101BA000706800F00C00082803D17068C0033FF58E
:101BB00076AF61683068002900F00C81B1F5A02F84
:101BC00000F00081B1F5803F40F01A8140F4803090
:101BD0001CE100BF2069002840F20000C4F242204E
:101BE00000F0888001210160FFF7D0F9054600BFB1
:101BF000306880073FF572AFFFF7C8F9401B022835
:101C0000F6D9032002B0BDE8F08100BFE168306A78
:101C1000002900F09D80052900F09280012940F004
:101C2000AF8040F00100B1E00020C4F2422000216A
:101C3000C0F88014FFF7AAF9054600BF706A800754
:101C40007FF556AFFFF7A2F9401B0228F6D9032013
:101C500002B0BDE8F08100BF0027C4F24227002097
:101C60003866FFF793F9022D05460DD130688001E3
:101C700040F1DE80FFF78AF9401B02284FF0030095
:101C8000F4D902B0BDE8F081306880014FD5FFF78C
:101C90007DF9401B02284FF00300F5D9F1E700BFA2
:101CA00040F20800C2F20000006844F6D351C1F2CD
:101CB0006201A0FB0101480A019000BF00BF01982A
:101CC000411E002801913FF413AF00BF0198411E4F
:101CD000002801913FF40CAF00BF0198411E00287D
:101CE00001913FF405AF00BF0198411E002801910A
:101CF000E4D1FDE600210160FFF748F9054600BF89
:101D0000306880077FF5F1AEFFF740F9401B0228ED
:101D10004FF00300F4D9B4E77068216A00F4803210
:101D20008A4209D1616A00F47010884204D100200F
:101D300002B0BDE8F08100BF012002B0BDE8F08133
:101D400040F004003062306A40F001001EE000BF45
:101D500020F001003062306A20F004003062FFF7AA
:101D600015F9054641F28837306A800720D5FFF71C
:101D70000DF9401BB8424FF00300F5D981E700BFD1
:101D800020F001003062306A20F004003062FFF77A
:101D9000FDF8054641F28837306A800708D4FFF71E
:101DA000F5F8401BB842F7D9032002B0BDE8F08136
:101DB000B8F1000F3FF59FAEF06920F08050F06160
:101DC00099E600BF40F480203060306840F48030F5
:101DD0001CE000BF20F480303060306820F48020A8
:101DE0003060FFF7D3F80546306880037FF55EAEBC
:101DF000FFF7CCF8401B64284FF00300F4D940E70C
:101E000020F480303060306820F480203060FFF7AC
:101E1000BDF80546306880033FF548AEFFF7B6F8D9
:101E2000401B6428F6D9032002B0BDE8F08100BF52
:101E3000206AB0F5803F05D17168A26821F40031B5
:101E4000114371607168626A21F47411114308438F
:101E5000706001203866FFF799F804463068800109
:101E60003FF565AFFFF792F8001B02284FF0030023
:101E7000F4D906E7411E0020B0EB116F1CBF012012
:101E800070474EF21002CEF2000251604EF623511E
:101E9000CEF20001F0230B700721906011607047B3
:101EA000FEE7000070B50368044653F8140F4007BE
:101EB00011D40E46481C29D086BB00BF18684005C7
:101EC00027D4FFF763F8236853F8140F400737D57A
:101ED00018684007F2D5002070BD00BF18684007A1
:101EE000F9D41868400514D418684007F3D418686A
:101EF00040050ED418684007EDD41868400508D492
:101F0000186840074FF0000048BF70BD18684005D2
:101F1000E4D56FF480601860042012E0154603E0F9
:101F200053F8140F4007D6D418684005F1D4FFF7D2
:101F30002DF8401B2368B042F2D958694007EFD40E
:101F4000202000212022216384F83D2084F83E10C7
:101F5000226C10432064012084F83C1070BD000006
:101F60002DE9F041054600681E46144601F47F0243
:101F700001338FB242D0DDF81880B2F5803F40F0D7
:101F8000878040693840C01BB0FA80F04009A04209
:101F900040F0C8804EB924E040693840C01BB0FA18
:101FA00080F04009A04240F0BD80FEF7EFFFA0EBBB
:101FB00008012868B142EFD941693940C91BB1FA1B
:101FC00081F14909A142E7D19BE000BF4069384057
:101FD000C01BB0FA80F04009A0424FF0000040F072
:101FE000A280FEF7D3FF286841693940C91BB1FAC6
:101FF00081F14909A142E9D183E000BFB2F5803FF8
:1020000024D100BF41693940C91BB1FA81F14909A6
:10201000A14240F0878041693940C91BB1FA81F182
:102020004909A14240F07E8041693940C91BB1FA9B
:1020300081F14909A14275D141693940C91BB1FA01
:1020400081F14909A142DDD06CE000BF81693940CE
:10205000C91BB1FA81F14909A14263D181693940B3
:10206000C91BB1FA81F14909A1425BD181693940AB
:10207000C91BB1FA81F14909A14253D181693940A3
:10208000C91BB1FA81F14909A142DFD04AE000BF82
:1020900080693840C01BB0FA80F04009A04241D1AD
:1020A00046B923E080693840C01BB0FA80F040098F
:1020B000A04237D1FEF76AFFA0EB08012868B142C1
:1020C000F0D981693940C91BB1FA81F14909A142AE
:1020D000E8D116E080693840C01BB0FA80F04009B2
:1020E000A0424FF0000018BFBDE8F081FEF74EFFA0
:1020F000286881693940C91BB1FA81F14909A142B7
:10210000E8D100202021286385F83D1085F83E00A5
:10211000296C41F02001296485F83C000120BDE8CC
:10212000F08100BF0020BDE8F0810000F0B581B073
:10213000044600681D4643698FB203EA0701B942AD
:1021400002D1002001B0F0BD4169164601323CD0F9
:10215000490512D47EB300BFFEF718FF411B20686B
:10216000B14203D941693940B9422BD14169394063
:10217000B942E6D041694905EED5016841F40071E4
:1021800001606FF4806141610420002120222163FD
:1021900084F83D2084F83E10226C1043206484F8BB
:1021A0003C10012001B0F0BD41693940B942C8D0AE
:1021B00041694905E1D4FEF7E9FE206841693940EB
:1021C000B942F1D02020E0E741694905D5D4416901
:1021D0003940B942B5D041694905CED44169394049
:1021E000B942AED041694905C7D441693940B942C5
:1021F000A7D041694905C0D441693940B942E3D10A
:102200009FE7000070B504460068154650F8143F7B
:102210005A063DD40E4629B926E000BF50F8141FD7
:10222000490635D40168C90621D4FEF7AFFE411B2B
:102230002068B142F2D941694906EFD4002020213B
:10224000206384F83D1084F83E00206C40F02000AC
:1022500018E000BFFEF79AFE206850F8141F4906E8
:10226000ECD50168490613D40168C906F2D56FF0B0
:102270001001016000202021206384F83D1084F8C3
:102280003E00206C2064002084F83C00012070BDDA
:10229000002070BD70B50368044653F8140F0006A3
:1022A00011D40E46481C29D086BB00BF18684005D3
:1022B00027D4FEF76BFE236853F8140F000637D5BA
:1022C00018680006F2D5002070BD00BF186800062F
:1022D000F9D41868400514D418680006F3D41868B7
:1022E00040050ED418680006EDD41868400508D4DF
:1022F000186800064FF0000048BF70BD1868400520
:10230000E4D56FF480601860042012E0154603E005
:1023100053F8140F0006D6D418684005F1D4FEF720
:1023200035FE401B2368B042F2D958690006EFD44D
:10233000202000212022216384F83D2084F83E10D3
:10234000226C10432064012084F83C1070BD000012
:1023500083B041F21800C4F20200016841F020018C
:102360000160016801F0200102910299016841F0C9
:1023700004010160016801F0040101910199016803
:1023800041F008010160006800F00800009000982A
:1023900003B0704780B540F2FC4045F20041C2F204
:1023A0000000C4F2000141F6802200234FF4804C6B
:1023B000C0F2060280E80E00C0E9033CC0E9053324
:1023C000C0E90733FEF7E8FD002808BF80BDBDE87F
:1023D0008040FEF7B9BC0000FEE70000FEE7000009
:1023E000F0B581B040F2784440F2FC45C2F20004FE
:1023F000AE20C2F2000560704FF0FF3628467A2109
:102400002246022300960227FFF77AF828467A210F
:102410002246022367700096FFF772F81020607062
:1024200028467A21224602230096FFF769F84027C2
:1024300028467A212246022367700096FFF760F84B
:10244000B020607028467A21224602230096FFF7CA
:1024500057F88120607028467A2122460223009690
:10246000FFF74EF8CF20607028467A2122460223DB
:102470000096FFF745F8A120607028467A21224691
:1024800002230096FFF73CF8A620607028467A21C8
:10249000224602230096FFF733F8A82060702846F2
:1024A0007A21224602230096FFF72AF83F20607027
:1024B00028467A21224602230096FFF721F8AD2014
:1024C000607028467A21224602230096FFF718F80A
:1024D0008B20607028467A21224602230096FFF75F
:1024E0000FF83320607028467A2122460223009696
:1024F000FFF706F8C820607028467A21224602239A
:102500000096FEF7FDFFD320607028467A21224610
:1025100002230096FEF7F4FF0020607028467A211F
:10252000224602230096FEF7EBFFD5206070284676
:102530007A21224602230096FEF7E2FFC020607057
:1025400028467A21224602230096FEF7D9FFD92099
:10255000607028467A21224602230096FEF7D0FFBB
:102560001F20607028467A21224602230096FEF73B
:10257000C7FFDA20607028467A212246022300969F
:10258000FEF7BEFF1220607028467A212246022301
:102590000096FEF7B5FFDB20607028467A212246C0
:1025A00002230096FEF7ACFF28467A21224602233A
:1025B00067700096FEF7A4FF40F27800C2F20000B8
:1025C0004FF48061FDF72EFF00F038FCAF20607003
:1025D00028467A21224602230096FEF791FF01B099
:1025E000F0BD000080B540F27800C2F200004FF468
:1025F0008061FDF717FF80BD2DE9F04F87B092F89D
:1026000000900492B9F1000F039100F09780044606
:10261000581C0290187859780730C0084843043095
:10262000049D9A465FFA80FB4FF000081AE000BF55
:10263000221D069CBA463D787B780399109FE0B234
:10264000CDE9005700F0FEF80298B044049A1FFA52
:1026500088F1007812F801900444B9F1000F02EB00
:1026600001056BD04FFA89F1B1F1FF3FCDE90514B7
:1026700008DD012657469AF808A0BAF1000F25D1C7
:1026800031E000BF09F0E000C02807D1022657461C
:102690009AF808A0BAF1000F18D124E009F0F00070
:1026A000E02807D1032657469AF808A0BAF1000F90
:1026B0000CD118E009F0F800F0283FD10426574665
:1026C0009AF808A0BAF1000F0DD000BF7C6800BFD7
:1026D000284621463246FDF734FE0028A8D0BAF13C
:1026E000010A5C44F4D1F86805994268BA460029A9
:1026F00016D406784378A9F12001F01DC00859438B
:10270000069C01FB00220399109FE0B2CDE900670F
:1027100000F098F8DAF80C000126013095E700BFC8
:10272000069C057843780399109FE0B2CDE90057E5
:1027300000F088F8DAF80C00013086E707B0BDE851
:10274000F08F00002DE9F04F01F0070CDDF824E0D8
:1027500003EB0C04092C4FEAD10847D345B2002DF6
:1027600020D43F291ED8CCF1080BFF2323FA0BF904
:1027700040F27803C2F2000302FA0CF603EBC8132E
:10278000BEF1000F18BFF64313F800A046EA090790
:102790000AEA07096FF0FF0747FA0BF73E4046EADF
:1027A00009061E54002D4BD4372949D804F1F703EC
:1027B000CCF10807FA40DBB24FF4FF7707FA03F3D6
:1027C00040F2780708F10101C2F2000707EBC111DE
:1027D000BEF1000F18BFD2430F5C42EA0306374038
:1027E0009A433A430A54BDE8F08F00BF43B2002B2E
:1027F00026D43F2988BFBDE8F08F611EC9B24FF4CF
:10280000FF7340F2780603FA01F1CCF10803FF27C9
:10281000C2F2000602FA0CF2DF4006EBC816BEF167
:10282000000F18BFD2431743355C0F432F406FF0A2
:10283000FF0545FA03F323EA0101114039433154FE
:10284000BDE8F08F2DE9F04F97B0002B0692129162
:1028500000F0F082DDE920298246B9F1000F4846F8
:102860001D464FEAD20318BF4FF0FF30082A02F08E
:102870000708169004D2B8F1000F40F0C082D9E2E8
:102880001298CDF80C8010F00708A3F10100059014
:1028900003F00300089005EB450010904FEA850017
:1028A00002931190079500F0C781C8F10801FF203D
:1028B000C84014906FF0FF0008411390A8F1010088
:1028C0000F91C0B24FF4FF7101FA00F00E90C043B7
:1028D0000D9068000A901C2000EAD20040420021BE
:1028E0000C900995CDF85480CDF810A00FE000BFF2
:1028F00010980B99013010900A98013101300A901C
:102900000998A94200F10100099000F06F8201EBE3
:102910000A000B9141B240F2780E0029C2F2000E7B
:10292000E6D405995FFA80FB032905D200240898B4
:10293000002840F0DD80DBE7069C032508E000BFAF
:102940000C980435284403281198044400F0C880EA
:10295000129800EBC50AAAF11800C1B23F2930D87D
:102960000B98CA0814F8009015980EEBC21309FAD8
:1029700000F61698149F464013F80BE0139846EAA9
:10298000070C0EEA0C0740F2780E0640DDF8548082
:10299000C2F2000E3743372903F80B7011D8511CCF
:1029A0000F9A0EEBC11129FA02F0169A0E9B5040B5
:1029B00011F80B2003431A400D9B1840104301F8F7
:1029C0000B00AAF11000C1B23F2929D80998CA0802
:1029D00014F800C016980CFA08F343400EEBC21727
:1029E000149817F80B6018433040139EDDF854809C
:1029F00033401843372907F80B0011D80F99501CA2
:102A0000169A2CFA01F10EEBC0100E9B514010F8F3
:102A10000B200B431A400D9B1940114300F80B107B
:102A2000AAF10800C1B23F2929D80A98CA0814F8A7
:102A300000C016980CFA08F343400EEBC217149826
:102A400017F80B6018433040139EDDF85480334074
:102A50001843372907F80B0011D80F99501C169A04
:102A60002CFA01F10EEBC0100E9B514010F80B2018
:102A70000B431A400D9B1940114300F80B105FFAED
:102A80008AF13F293FF65CAF1098CA0814F800C0DD
:102A900016980CFA08F343400EEBC217149817F877
:102AA0000B6018433040139EDDF8548033401843C8
:102AB000372907F80B003FF643AF0F99501C169AC1
:102AC0002CFA01F10EEBC0100E9B514010F80B20B8
:102AD0000B431A400D9B1940114300F80B102FE7D0
:102AE000EC1EDDF810A0079D089800283FF400AF09
:102AF0001298069900EBC4000B9AC0B23F2801EB74
:102B0000020C2BD804FB05F11CF80190C2081699A1
:102B100009FA08F30EEBC217149D4B4017F80B602F
:102B200013991D432E40079D0B40DDF8548033431D
:102B3000372807F80B3011D8501C0F9A0EEBC01035
:102B400029FA02F1169A0E9B514010F80B200B4304
:102B50001A400D9B1940114300F80B1008980128EA
:102B60003FF4C6AE1298611C00EBC100C0B23F2812
:102B70002AD869431CF80190C208169909FA08F38B
:102B80000EEBC217149D4B4017F80B6013991D43B1
:102B90002E40079D0B40DDF854803343372807F85B
:102BA0000B3011D8501C0F9A0EEBC01029FA02F10D
:102BB000169A0E9B514010F80B200B431A400D9BA8
:102BC0001940114300F80B10089802283FF490AE0A
:102BD0001298A11C00EBC100C0B23F283FF688AE9E
:102BE00069431CF80110169FC20801FA08F37B40E4
:102BF0000EEBC217149D17F80B60139C1D432E405B
:102C0000079D2340DDF854803343372807F80B3005
:102C10003FF66EAE501C0F9A0EEBC010D140169AC4
:102C20000E9B514010F80B200B431A400D9B19408E
:102C3000114300F80B105BE61C2000EAD2004FEABB
:102C4000450EC0F1000C0024A9460AE0109801349A
:102C500001300EF1010EAC4209F10109109000F0B3
:102C6000C58004EB0A0041B20029EFD40599C3B234
:102C7000032905D20020089900296BD1E6E700BF9F
:102C80000698032207E000BF04320CEB020103297F
:102C90001199084458D0129901EBC201A1F118050D
:102CA000EEB23F2E0ED9A1F11005EEB23F2E1AD989
:102CB000A1F10805EEB23F2E27D9CDB23F2DE3D8C2
:102CC00033E000BF065D169F05F0F8057E4040F238
:102CD0007807C2F2000707EB0515EE54A1F11005C5
:102CE000EEB23F2EE4D810F80960169F05F0F80503
:102CF0007E4040F27807C2F2000707EB0515EE545C
:102D0000A1F10805EEB23F2ED7D810F80E60169F3D
:102D100005F0F8057E4040F27807C2F2000707EBA5
:102D20000515EE54CDB23F2DAED8109D169E455DD3
:102D300001F0F801754040F27806C2F2000606EB99
:102D40000111CD54A0E700BF079DD01E08990029AE
:102D50003FF47CAF129901EBC002D1B23F29069932
:102D600021440ED8079D169E45434D5D02F0F802A2
:102D7000754040F27806C2F2000606EB0212D55406
:102D8000079D089A012A3FF461AF129A451C02EB95
:102D9000C502D6B23F2E0DD8079E02F0F802754349
:102DA0004D5D169E754040F27806C2F2000606EBB5
:102DB0000212D554089A079D022A3FF447AF821C9D
:102DC000129800EBC200C5B23F2D079D3FF63EAF03
:102DD0006A43895C169A00F0F800514040F278028C
:102DE000C2F2000202EB0010C1542FE7DDF80C80A4
:102DF000DDE92029029BB8F1000F1BD0D5B1129953
:102E000002F0F80001440698CEB203FB05046D42BF
:102E10004FF0FF30471C2044427807EB0A00C0B255
:102E200031464346CDF80090FFF78CFCE81901309D
:102E30003846EFD117B0BDE8F08F00002DE9F04F14
:102E400081B040F27A48C2F200084020454640F284
:102E5000784740F2FC4605F8010BC2F20007B020AB
:102E6000C2F2000678704FF0FF3430467A213A46BD
:102E7000022300944FF0020AFEF742FB30467A210B
:102E80003A46022387F801A00094FEF739FB4FF081
:102E9000100B30467A213A46022387F801B000949D
:102EA000FEF72EFB40F27809C2F200092846494697
:102EB0008022FDF772FA30467A214246812300943F
:102EC000FEF71EFBB120787030467A213A46022385
:102ED0000094FEF715FB30467A213A46022387F824
:102EE00001A00094FEF70CFB30467A213A460223FB
:102EF00087F801B00094FEF703FB09F18001284632
:102F00008022FDF74AFA30467A2142468123009416
:102F1000FEF7F6FAB220787030467A213A4602235C
:102F20000094FEF7EDFA30467A213A46022387F8FC
:102F300001A00094FEF7E4FA30467A213A460223D3
:102F400087F801B00094FEF7DBFA09F58071284696
:102F50008022FDF722FA30467A21424681230094EE
:102F6000FEF7CEFAB320787030467A213A46022333
:102F70000094FEF7C5FA30467A213A46022387F8D4
:102F800001A00094FEF7BCFA30467A213A460223AB
:102F900087F801B00094FEF7B3FA09F5C07128462E
:102FA0008022FDF7FAF930467A21424681230094C7
:102FB000FEF7A6FAB420787030467A213A4602230A
:102FC0000094FEF79DFA30467A213A46022387F8AC
:102FD00001A00094FEF794FA30467A213A46022383
:102FE00087F801B00094FEF78BFA09F500712846C6
:102FF0008022FDF7D2F930467A214246812300949F
:10300000FEF77EFAB520787030467A213A460223E0
:103010000094FEF775FA30467A213A46022387F883
:1030200001A00094FEF76CFA30467A213A4602235A
:1030300087F801B00094FEF763FA09F5207128467D
:103040008022FDF7AAF930467A2142468123009476
:10305000FEF756FAB620787030467A213A460223B7
:103060000094FEF74DFA30467A213A46022387F85B
:1030700001A00094FEF744FA30467A213A46022332
:1030800087F801B00094FEF73BFA09F54071284635
:103090008022FDF782F930467A214246812300944E
:1030A000FEF72EFAB720787030467A213A4602238E
:1030B0000094FEF725FA30467A213A46022387F833
:1030C00001A00094FEF71CFA30467A213A4602230A
:1030D00087F801B00094FEF713FA09F560712846ED
:1030E0008022FDF75AF930467A2142468123009426
:1030F000FEF706FA01B0BDE8F08F0000704700004F
:1031000070470000FEF720BB70470000FEE700009C
:1031100094B0FEF727FB00240120CDE90744CDE958
:103120000544029006904FF4E0104FF480310225E0
:103130000B9002A8CDE90314CDE90951FEF79AFCE2
:1031400020B1EFF3108072B6FEE700BF0F20CDE98B
:103150000F054FF48060CDE912040FA802211194ED
:10316000FEF796FB20B1EFF3108072B6FEE700BFCA
:10317000FFF7EEF8FFF70EF91420FDF7EBFDFFF770
:103180002FF9FDF753FD44F2A8460FF2780802AD7F
:103190004FF0000AC0F600060FF27809FDF76CFD4B
:1031A000FDF7C8FD0446FDF73BFD0746FFF71AFA99
:1031B000204600F037FC02460B4628464146FDF704
:1031C00025F80F200F212A463346CDF800A0FFF73F
:1031D00013FA384600F026FC02460B4628464946BC
:1031E000FDF714F80F2023212A463346CDF800A01E
:1031F000FFF702FAFFF722FE4FF47A70FDF7AAFDFF
:10320000CCE700BFE6B8A9E5BAA63A20252E31667C
:1032100000000000E6B9BFE5BAA63A20252E3166C7
:10322000252500005FEA400C08BF91F0000F4FEA2F
:103230008C234FEAC12243EA51514FEA1C5018BF78
:1032400000F5F0404FEA300018BF41F000415FEA5E
:103250006C5C00F02980BCF1FF3F08BF40F080406B
:103260007047130C06BF12044FF0100C4FF0000C07
:10327000130E04BF12020CF1080C130F04BF12014D
:103280000CF1040C930F04BF92000CF1020CD30F4D
:1032900004BF52000CF1010C11464FF00002A0F1E6
:1032A0001F00A0EB0C00704711F0004F08BF7047E3
:1032B00031F000413FF4D5AF0B0C06BF09044FF0CD
:1032C000100C4FF0000C0B0E04BF09020CF1080C9F
:1032D0000B0F04BF09010CF1040C8B0F04BF890014
:1032E0000CF1020CCB0F04BF49000CF1010CCCF126
:1032F000200322FA03F341EA030102FA0CF2A0EBE5
:103300000C0000F10100704723F07F4720F07F4C54
:1033100080EA030000F00040ACEB070303F57C53A8
:1033200003F1FF032DE9804909B44FEA144324EA6D
:1033300003484FEA154B25EA0B4E0FF2042606EB25
:1033400013273E7803FB0667C7F5000707FB06F661
:103350004FEAD64606F102064FEA543707FB066CE1
:10336000CCF1005C4FEA1C472CEA074C0CFB06F53D
:1033700007FB06F404EB15464FEA961649085FEA88
:10338000320234BF00204FF000404FEAD13706FB35
:1033900007FC4FEA1C4C0CFB0BF7D21B03FB0CF792
:1033A00061EB07010CFB0EF7B0EB074072EB174225
:1033B0000CFB08F734BFA2EB0742B2EB074261EB0C
:1033C00017414FEA0C444FEA910706FB07FC4FEA0E
:1033D0001C4C0CFB0BF7B0EBC74072EB573203FBF6
:1033E0000CF734BFA2EBC742B2EBC74261EB5731D7
:1033F0000CFB0EF7B0EBC70072EB57720CFB08F733
:1034000034BFA2EBC702B2EBC70261EB57714FEAC0
:10341000816141EA92114FEA826242EA90124FEAD8
:10342000806004EBCC04039F4FEAD13706FB07FC16
:103430004FEA1C4C0CFB0BF7D21B03FB0CF761EBA8
:1034400007010CFB0EF7B0EB074072EB17420CFBC9
:1034500008F734BFA2EB0742B2EB074261EB17411A
:103460004FEA8C5504EB9C244FEA910706FB07FCBE
:103470004FEA1C4C0CFB0BF7B0EBC74072EB57321A
:1034800003FB0CF734BFA2EBC742B2EBC74261EBC0
:1034900057310CFB0EF7B0EBC70072EB57720CFB09
:1034A00008F734BFA2EBC702B2EBC70261EB57715A
:1034B0004FEA816141EA92114FEA826242EA901238
:1034C0004FEA806015EB4C2544F100044FEAD137F8
:1034D00006FB07FC4FEA1C4C0CFB0BF7D21B03FB53
:1034E0000CF761EB07010CFB0EF7B0EB074072EB3A
:1034F00017420CFB08F734BFA2EB0742B2EB0742BE
:1035000061EB17414FEA813141EA92414FEA823241
:1035100042EA90424FEA80304FEA0C7615EB1C15D8
:1035200044F1000448EA03434EEA0B484FF0000E12
:10353000B2EB080C71EB030724BF624639464EEB31
:103540000E0E4FF0000B0018524149414BEB0B0B94
:10355000B2EB080C71EB03077BF1000B24BF624652
:1035600039464EEB0E0E4FF0000B00185241494108
:103570004BEB0B0BB2EB080C71EB03077BF1000B71
:1035800024BF624639464EEB0E0E51EA020718BFC1
:1035900046F0010616EB0E7655F1000254F10001DB
:1035A00003D5BDE88901BDE80088BDE88901BDE813
:1035B0000048B619524141EB0101A3F101037047E4
:1035C00080807F7E7D7C7B7A797877767675747360
:1035D000727171706F6E6E6D6C6C6B6A6A6968681F
:1035E000676666656464636362616160605F5F5EB5
:1035F0005E5D5D5C5C5B5B5A5A595958585757562B
:10360000565555555454535352525251515050508F
:103610004F4F4F4E4E4D4D4D4C4C4C4B4B4B4A4AE1
:103620004A49494948484847474747464646454525
:10363000454444444443434343424242424141415E
:103640009C46002B30D477002BD04FEA37071CB5AF
:1036500003B44FF010004FF01001BAF1000F06D084
:10366000BCF1000FDCBF40F0080040F008014FF053
:1036700000000FBCBDE810400BF1010BBBF1010FC6
:1036800008BF5FEA170722BF12F1010211F1010121
:103690004FF0004143F1000300F0004043EA000016
:1036A0007047F9D35708D0E746EA06464FEA164670
:1036B00013F1400F1FDD13F1200FDFBF16430A4641
:1036C000002120335B42BED0C3F1200746EA064604
:1036D0004FEA164602FA07F746EA070622FA03F20D
:1036E000C3F1200701FA07F742EA070221FA03F1C2
:1036F0004FF00003A7E746EA020646EA06464FEA0D
:10370000164646EA0106BCBF46EA0646360C4FF0AE
:1037100000034FF000024FF0000194E72DE9804CC8
:1037200070B49A46934691E8380007C831EA400CD5
:1037300048BF34EA430C03D5FFF7E6FDFFF780FFEF
:10374000F0BCBDE8008C2DE9804C70B49A469346DD
:1037500091E8380007C810F0804F08BF13F0804F81
:1037600003D100F005F8FFF76BFFF0BCBDE8008C5B
:1037700020F07F4723F07F4C80EA030000F00040F8
:1037800007EB0C03A3F57C53A3F1FE0392F0000FAB
:1037900000F0B38095F0000F00F077802DE901492B
:1037A0004FEA114021EA00484FEA144624EA06474E
:1037B00000FB06FC08FB06F607FB08F818EB0648BA
:1037C0004CEB164C00FB07F718EB07484CEB174087
:1037D0004FEA124B22EA0B4E4FEA154625EA0647FE
:1037E0000BFB06FC0EFB06F607FB0EFE1EEB064E61
:1037F0004CEB164C0BFB07F71EEB074E4CEB174B35
:1038000018EB0B0840F1000018EB0E0B58EB00080A
:1038100040F100008F1A4FF000014FF000063CBF4E
:10382000C943661B14BFB5EB040C00213CBFC94360
:10383000F61B4FEA174427EA04454FEA1C472CEAD7
:10384000074C04FB076205FB07F70CFB05F616EBBC
:10385000074642EB174204FB0CFC16EB0C4642EB0E
:103860001C421BEB060658EB020241414EEA8E0E4B
:1038700046EA9E0601D5BDE80189B619524141EBE1
:103880000101A3F10103BDE801894FEA144524EACF
:1038900005464FEA114721EA074C05FB07F406FBF2
:1038A00007F70CFB06F111EB074144EB174405FB4E
:1038B0000CFC11EB0C4144EB1C444FEA124722EA8A
:1038C000074C05FB07F206FB07F70CFB06F616EBA9
:1038D000074642EB174205FB0CFC16EB0C4642EB8D
:1038E0001C456A1854F1000148BF7047B61952418F
:1038F00041EB0101A3F10103704795F0000F37D0B0
:103900004FEA114221EA02464FEA144724EA074CE3
:1039100002FB07F106FB07F70CFB06F414EB074468
:1039200041EB174102FB0CFC14EB0C4441EB1C4136
:103930004FEA154725EA074C02FB07F506FB07F798
:103940000CFB06F616EB074645EB174502FB0CFC95
:1039500016EB0C4645EB1C42121951F1000148BF11
:103960007047B619524141EB0101A3F101037047C1
:103970004FEA144524EA05464FEA114721EA074C6D
:1039800005FB07F106FB07F70CFB06F212EB0742FB
:1039900041EB174105FB0CFC12EB0C4251EB1C41B7
:1039A0004FF0000648BF7047921841EB0101A3F1A8
:1039B00001037047490050EAC12018BF04204A0D96
:1039C00018BF40F0010040F2FF72B2EB515F08BF38
:1039D00040F00200012808BF0520704730380A284F
:1039E00001D20120704700207047000010B5002967
:1039F0000AD00878002807D005487844FDF7C8F8B1
:103A0000002801D0002010BD0248784410BD0000FD
:103A1000920B00008A0B00000808A0F500114FEA85
:103A20003101704743004FEAD30C4FEA3C0C43404E
:103A30001FBF40070CF1605113F0FE4F70471CF0A0
:103A4000006F03D10CF00041002070470CF00043E0
:103A500043EA507040EACC0010B500F006F900BF10
:103A6000000000924FEA0001FFF7D6BF4FF000417F
:103A7000A1F500214FF000007047000090EA010F0F
:103A800048BF81F0004100F14281421A3CBF801AD8
:103A900089184FEAD052A2EBD1534FF07F4C1CEA69
:103AA000410F18BF9CEA026F00F03B804FF0004CC2
:103AB0004CEA00204CEA012121FA03FC10EB0C0C2B
:103AC0001ED202F1FF325FEA1C2040EBC25038BF29
:103AD00070471CF07F0F4FEA400C18BFBCF17F4FBE
:103AE00038BF7047C3F12003994008BF20F00100A0
:103AF000BCF17F4F38BF7047A0F1C04000F0FBB869
:103B00004FEA3C00000A40EBC25028BF1CF0FF0FF8
:103B10004FEA400CE6D018BFBCF17F4F38BF70476A
:103B2000EAE79CEA026F05D010EA5C0F08BF00F0DC
:103B30000040704710B500F098F800BF64FBBE3E2F
:103B4000B0FA80F310FA03F2C3F19D030AD0D9054D
:103B500001EB1220530638BF704700F1010008BF87
:103B600020F00100704700004FF47F0C1CEAD012D7
:103B70001EBF1CEAD11392EA0C0F93EA0C0F00F05F
:103B8000478090EA010F48BF42F480724FF0004C2A
:103B90004CEA00204CEA012102EB0302A0FB0113D6
:103BA000A2F50002002918BF43F001035B0028BF03
:103BB0004FEA330342EB22425FEA132C4CEBC25034
:103BC0002EBFBCEB436FB2F57C0F70474FEA036C1E
:103BD000BCF1004F08BF20F00100B2F57C0F38BFE8
:103BE00070470BD582F0FF0212F5803FC8BF7047C7
:103BF00000F1C040D8BF00F00040704700F5000C55
:103C00005FEA4C0C48BF7047B0F1C04000F073B899
:103C10000CEAD11390EA010F48BF42F4807262456A
:103C200038BF634504D280EA010000F000407047CD
:103C300010B500F01AF800BF8900013E00F007B887
:103C400000F009B85FEA410C5FEA1C6C08D080EA1A
:103C5000010000F050B85FEA400C5FEA1C6CF6D13E
:103C60004FF00040A0F5800070470EF1020E2EF0DC
:103C7000030E5EF8044B244204D44FEA4102B2F131
:103C80007F4F11D84FEA4003B3F17F4F0CD80ED1CC
:103C90004FEAD07C0CEB4C0C0CF1020CB2F17F4FD4
:103CA00008BF4CEBD17C04E04FF0080C01E04FEA78
:103CB000D17C0CEB4C0324FA03F404F00704B4F1B8
:103CC000040C06D20EEB840CBDE810404CF0010C45
:103CD0006047DFE80CF0070802024FF00040A0F553
:103CE000800010BD0846420018BFD2F1807288BF24
:103CF00000F0004010BDFF2141EAD050C0057047E0
:103D000090EA010F48BF81F000413FF5BEAE421A74
:103D100004D882F00042A0EB020011444FEAD052D6
:103D2000A2EBD1534FF07F4C1CEA410F18BF9CEA25
:103D3000026F4AD04FF0004C4CEA00204CEA0121BF
:103D400021FA03FCB0EB0C0C0FD412F0FE0F36D0AE
:103D50005FEA4C001DD5001240EBC25038BF7047DF
:103D60001CF03F0F18BF70470BE05FEA1C20A2F168
:103D7000010240EBC25038BF70471CF07F0F18BFE4
:103D80007047C3F12003994014BF401E20F001008A
:103D900070474FEA1223800808BF7047B0FA80FCD2
:103DA000A2EB0C02CCF1280C60FA0CF093EA122F73
:103DB00004BF00EBC25070474FEAC3707047130A4C
:103DC0005FEADC1008BF7047F6E79CEA026F04D098
:103DD00010EA5C0F08BF0020704710B5FFF745FFE1
:103DE00040DFF63E81F000407047FCF71DBC00004C
:103DF00002400000000000A000000000054000009C
:103E0000000000C8000000000C4000000000409CC2
:103E100000000000194000000020BCBE00000000AF
:103E200034400000BFC91B8E00000004B5400000F4
:103E3000504BCFD06607E2CF010000006C4100007C
:103E40003E8251AADFEEA73401000000D9420000F3
:103E5000DCB5A0E23A301F97FFFFFFFFB44500003A
:103E6000FD25A0C8E9A3C14FFFFFFFFFFF3F0000F2
:103E70000000008000000000FF3F00000000008004
:103E80000000000000000000000000000102030428
:103E900006070809000000000102030401020000F7
:103EA00010080000A83E000800000000000000000C
:103EB0000000000000000000000000F8000000000A
:103EC000000000333000000000100C06100C06004B
:103ED000000000000000000040C07840C0784000B2
:103EE000043F04043F040400007088FC0830000014
:103EF000001820FF211E0000F008F000E01800006C
:103F000000211C031E211E0000F008887000000024
:103F10001E2123241927211010160E000000000076
:103F20000000000000000000000000E01804020093
:103F3000000000071820400000020418E000000004
:103F40000040201807000000404080F08040400002
:103F50000202010F01020200000000F00000000058
:103F60000101011F0101010000000000000000002C
:103F700080B07000000000000000000000000000A1
:103F8000000101010101010100000000000000002A
:103F900000303000000000000000000080601804C5
:103FA000006018060100000000E010080810E000A2
:103FB000000F102020100F00001010F8000000006B
:103FC0000020203F202000000070080808887000B2
:103FD0000030282422213000003008888848300032
:103FE0000018202020110E000000C02010F8000052
:103FF00000070424243F240000F8088888080800EB
:104000000019212020110E0000E0108888180000FF
:10401000000F112020110E0000380808C8380800D1
:104020000000003F00000000007088080888700051
:10403000001C222121221C0000E010080810E000D2
:104040000000312222110F00000000C0C00000005B
:104050000000003030000000000000800000000080
:104060000000806000000000000080402010080078
:104070000001020408102000404040404040400041
:10408000040404040404040000081020408000001C
:104090000020100804020100007048080808F00021
:1040A0000000003036010000C030C828E810E000F1
:1040B0000718272423140B000000C038E00000007C
:1040C000203C23020227382008F8888888700000E6
:1040D000203F202020110E00C030080808083800BA
:1040E000071820202010080008F808080810E00031
:1040F000203F202020100F0008F88888E8081000D2
:10410000203F20202320180008F88888E8081000A5
:10411000203F200003000000C030080808380000DD
:1041200007182020221E020008F808000008F808DE
:10413000203F210101213F20000808F80808000065
:104140000020203F2020000000000808F808080098
:10415000C08080807F00000008F888C02818080010
:10416000203F20012638200008F808000000000049
:10417000203F20202020300008F8F800F8F8080040
:10418000203F003F003F200008F830C00008F8083A
:10419000203F200007183F00E01008080810E0004A
:1041A0000F10202020100F0008F808080808F00061
:1041B000203F210101010000E01008080810E00084
:1041C0000F18242438504F0008F888888888700019
:1041D000203F2000030C30200070880808083800B9
:1041E0000038202121221C00180808F808081800AF
:1041F0000000203F2000000008F808000008F80830
:10420000001F202020201F000878880000C83808E0
:10421000000007380E010000F80800F80008F80058
:10422000033C0700073C03000818688080681808F2
:1042300020302C03032C30200838C800C838080070
:104240000000203F2000000010080808C8380800BF
:104250002038262120201800000000FE0202020063
:104260000000007F40404000000C30C00000000013
:10427000000000010638C00000020202FE0000003B
:10428000004040407F0000000000040202020400E1
:10429000000000000000000000000000000000001E
:1042A0008080808080808080000202040000000006
:1042B00000000000000000000000808080800000FE
:1042C0000019242222223F2008F8008080000000EC
:1042D000003F112020110E000000008080800000AF
:1042E000000E112020201100000000808088F800BE
:1042F000000E112020103F200000808080800000F0
:10430000001F222222221300008080F08888881853
:104310000020203F2020000000008080808080005E
:10432000006B94949493600008F8008080800000F3
:10433000203F210000203F200080989800000000CE
:104340000020203F202000000000008098980000FE
:1043500000C08080807F000008F80000808080001E
:10436000203F24022D302000000808F80000000043
:104370000020203F202000008080808080808000FE
:10438000203F20003F20003F808000808080000090
:10439000203F210000203F2000008080808000001E
:1043A000001F202020201F0080800080800000004F
:1043B00080FFA12020110E0000000080808080007E
:1043C000000E112020A0FF8080808000808080006F
:1043D00020203F212000010000008080808080009C
:1043E0000033242424241900008080E08080000011
:1043F0000000001F2020000080800000008080005E
:10440000001F202020103F208080800000808080BE
:1044100000010E300806010080800080008080804E
:104420000F300C030C300F00008080008080800073
:104430000020312E0E31200080808000008080809E
:1044400080818E701806010000808080808080004E
:104450000021302C2221300000000000807C02026C
:1044600000000000003F404000000000FF0000008E
:1044700000000000FF0000000002027C800000003D
:104480000040403F00000000000601010202040459
:1044900000000000000000000203040506070809F0
:1044A0000A0B0C0D0E0F101010100000B84400087D
:1044B00005000000A03E0008E6B8A9001060028CCC
:1044C0000000FE9292929292FE00000004047E018F
:1044D000407E42427E427E42427E4000E5BAA600D5
:1044E0000000FC242424FC252624FC24242404008D
:1044F00040308F80844C55252525554C8080800088
:10450000E6B9BF001060028C00FE929292929292E5
:10451000FE00000004047E014448507F40407F506C
:1045200048444000E6918400101010FF109082FE75
:10453000AAAAAAAAFE4240000444827F81422A120B
:104540006E805E22538E8000E6B08F000000FC4437
:1045500044444444FE424243424040000000FF4085
:1045600020000000010608102040F800A8450008BF
:10457000000000201000000050010008B8450008AD
:1045800010000020480B0000700100081C00000013
:1045900043000000F8FFFFFF0C0000000E000000C9
:1045A0000F0000002E0000000100000010000000BD
:0845B00000127A000000000077
:04000005080000ED02
:00000001FF
